:060000000A128A11122809
:10000800FE00030EF2000408F3000A08F40083124D
:1000180003137F08F5000A128A118F2B0A128A111E
:100028001528F601F701EE01EF0183160313E0012D
:10003800E101E201E301E401E501E601E701E8018C
:10004800E901EA01EB018317B830FD000330FE0037
:10005800E030FF00903084000A128A11C3240A128B
:100068008A118313C830FD000330FE00B830FF004A
:10007800A03084000A128A11C32483010A128A114B
:10008800552C94300A128A1199240A128A11C83000
:100098008400A03083120313E8000408E900143038
:1000A800EA006808840083130008EB00E80A69087E
:1000B80084006B088000E90AEA0B5528C8300A1248
:1000C8008A1177240A128A11831603136908831286
:1000D8000313A101A10783160313680883120313EE
:1000E800A001A0073C30A2000030A3000A128A1128
:1000F80030240A128A11831203132108831603136A
:10010800EB01EB0783120313200883160313EA019C
:10011800EA07EB1B96293C3083120313A00000303A
:10012800A100831603136B0883120313A301A3070B
:10013800831603136A0883120313A201A2070A1283
:100148008A11B1220A128A11831203132108831615
:100158000313E101E1078312031320088316031335
:10016800E001E0073C3083120313A0000030A10037
:10017800831603136B0883120313A301A3078316C3
:1001880003136A0883120313A201A2070A128A1131
:100198000E230A128A1183120313210883160313EC
:1001A800E301E30783120313200883160313E20114
:1001B800E2070A3083120313A0000030A10083165F
:1001C8000313630883120313A301A30783160313FE
:1001D800620883120313A201A2070A128A110E23CE
:1001E8000A128A1183120313210883160313DD01EF
:1001F800DD0783120313200883160313DC01DC07D1
:100208000A3083120313A0000030A10083160313E1
:10021800630883120313A301A30783160313620859
:1002280083120313A201A2070A128A11B1220A1229
:100238008A1183120313210883160313DF01DF07D2
:1002480083120313200883160313DE01DE070A3026
:1002580083120313A0000030A100831603135F0864
:1002680083120313A301A307831603135E088312E3
:100278000313A201A2070A128A110E230A128A1175
:1002880083120313210883160313DF01DF07831288
:100298000313200883160313DE01DE07C0300A1299
:1002A8008A1199240A128A11831603136008303EB2
:1002B8000A128A11AC240A128A113A300A128A11D7
:1002C800AC240A128A11831603135E08303E0A1200
:1002D8008A11AC240A128A11831603135C08303E73
:1002E8000A128A11AC240A128A117A308312031373
:1002F800A0000030A1000A128A11D0240A128A1123
:1003080083160313670866040319962901306406E7
:10031800650403198A29FF30EA070318EB0AFF303E
:10032800EB078D28E801E901EA01EB010A128A11BD
:100338003E220800831203136F08ED01ED076E08D3
:10034800EC01EC076D08803AFF0080307F02031D46
:10035800AF2903306C020318B92901308312031343
:10036800EC070318ED0A0030DA29831203136D082D
:10037800803AFF0080307F02031DC42907306C02D9
:10038800031CDC29831203136D08803AFF008030B8
:100398007F02031DD1290B306C020318DC29FF30C2
:1003A80083120313EC070318ED0AFF30ED07FF294A
:1003B800831203136D08803AFF0080307F02031D0B
:1003C800E72904306C02031CF629831203136D0815
:1003D800803AFF0080307F02031DF42907306C0249
:1003E800031CFF290D30831203136C066D04031DD3
:1003F800FF29EC01ED018316031367086604031D4A
:100408002E2A831203136D0883160313E901E907E3
:10041800831203136C0883160313E801E807C0303E
:100428000A128A1199240A128A118316031368087A
:10043800303E0A128A11AC240A128A112E2A0A1294
:100448008A1145200800013083160313E4000030A8
:10045800E5000800831203136D08003A0319352AD2
:100468003D2A6C080C3A0319232A023A0319272A51
:100478003D2A080083160313E601E7010A128A11D0
:1004880008240A128A1180300A128A1199240A1241
:100498008A112C308400B43083120313A800040896
:1004A800A9001430AA002808840083130008AB00B0
:1004B800A80A290884002B088000A90AAA0B572A31
:1004C8002C300A128A1177240A128A11C0300A12B3
:1004D8008A1199240A128A114030840090308312BC
:1004E8000313A8000408A9001430AA0028088400EF
:1004F80083170008AB00A80A2908840083132B0877
:100508008000A90AAA0B7A2A40300A128A11772495
:100518000A128A1194300A128A1199240A128A112D
:1005280054308400A43083120313A8000408A900DF
:100538001430AA002808840083170008AB00A80A12
:100548002908840083132B088000A90AAA0B9E2A75
:1005580054300A128A117724080083120313A60163
:10056800A11FBD2AA009A109A00A0319A10AA60171
:10057800A60AA31FC82AA209A309A20A0319A30A43
:100588000130A4002408A606A701A8012108200418
:100598000319FF2AA501A50AA11BDE2A01300310B1
:1005A800A00DA10DFF3E031DD32A0130A40024088D
:1005B800A507D02A01300310A70DA80DFF3E031D83
:1005C800DF2A21082302031DEB2A20082202031C2C
:1005D800F42A2008A2022108031CA303A30227145B
:1005E80001300310A10CA00CFF3E031DF52A0130B9
:1005F800A502031DDE2A26080319072BA709A80947
:10060800A70A0319A80A2808A101A1072708A00119
:10061800A007080083120313A601A31F1A2BA2091F
:10062800A309A20A0319A30AA601A60AA11F212B3E
:10063800A009A109A00A0319A10A21082004031985
:100648004E2BA501A50AA11B352B01300310A00DC7
:10065800A10DFF3E031D2A2B0130A4002408A50785
:10066800272B21082302031D3B2B20082202031CF1
:10067800432B2008A2022108031CA303A302013074
:100688000310A10CA00CFF3E031D442B0130A50252
:10069800031D352B26080319562BA209A309A20A04
:1006A8000319A30A2308A101A1072208A001A00792
:1006B80008000C30831203136E066F04031D762B9B
:1006C8008316031367086604031D6F2B0130E600C9
:1006D8000030E700762B013066066704031D762B91
:1006E800E601E7010E3083126E066F04031D080051
:1006F8008316031365086404031D872B0130E40087
:100708000030E5000800013064066504031D080098
:10071800E401E50108008B138B1CA12B08080F3995
:10072800F000F1017008EE007108EF000A128A115A
:100738005D230A128A118B10AA2B0B1DAA2B0130DC
:10074800F6070318F70A0030F7070B118B1775081F
:1007580083120313FF0074088A0073088400720E62
:100768008300FE0E7E0E09005334743461347234F3
:10077800743469346E3467342E342E342E34203475
:100788002034203420342034003400340034003441
:10079800533461346D3470346C34653420344834E7
:1007A80065346134643465347234003400340034A0
:1007B800003400340034003430343A3430343034C7
:1007C8000034003400340034003400340034003481
:1007D8000034003400340034003400340034003471
:1007E8005034723465347334733420342A342034EA
:1007F80074346F3420345334743461347234743440
:1008080000340034003400341E3083120313A00077
:100818000030A1000A128A11D0240A128A11383035
:100828000A128A1199240A128A1108300A128A11A6
:1008380099240A128A1101300A128A1199240A127B
:100848008A1106300A128A1199240A128A110E3066
:100858000A128A119924080083120313A401A5011E
:10086800201C3C2C2208A4070318A50A2308A50766
:1008780001300310A20DA30DFF3E031D3D2C0130D6
:100888000310A10CA00CFF3E031D442C21082004DA
:10089800031D342C2508A101A1072408A001A007E5
:1008A800080043308316031381000B168B108B1638
:1008B8000B118B1706309F0007309C008501013013
:1008C800860087010F3088000A128A113E220A1218
:1008D8008A1183120313061C6D2C0A128A119E2199
:1008E8000A128A116D2C83120313A700A501A60111
:1008F80025082707A4002408840083138008031907
:10090800080025082707A4002408840000080A1204
:100918008A11AC240A128A11013083120313A50725
:100928000318A60A0030A6077C2C83120313A30021
:10093800230887000510051185143D30A0000030FC
:10094800A1000A128A11D02483120313851008000B
:1009580083120313A30023088700051405118514C7
:100968000130A0000030A1000A128A11D02483129D
:100978000313851008007E088A007F088200BF24C0
:100988000A128A118000840A04087D0603190034BB
:10099800FF0A0319FE0AC32C7708803A831203134F
:1009A800A2002108803A2202031DDC2C20087602CE
:0A09B800031CD02CF601F701080023
:02400E0071FF40
:00000001FF
